:020000040800F2
:10000000600600206D0100087501000877010008F6
:10001000790100087B0100087D0100080000000054
:100020000000000000000000000000007F01000848
:10003000810100080000000083010008850100081C
:100040008701000887010008870100088701000870
:100050008701000887010008870100088701000860
:100060008701000887010008870100088701000850
:100070008701000887010008870100088701000840
:100080008701000887010008870100088701000830
:100090008701000887010008870100088701000820
:1000A0008701000887010008870100088701000810
:1000B0008701000887010008000000008701000890
:1000C0008701000800000000000000008701000810
:1000D0000000000087010008870100080000000000
:1000E00087010008870100088701000800F002F876
:1000F00000F02CF80AA090E8000C82448344AAF196
:100100000107DA4501D100F021F8AFF2090EBAE893
:100110000F0013F0010F18BFFB1A43F0010318473B
:1001200038040000480400000023002400250026B5
:10013000103A28BF78C1FBD8520728BF30C148BF4A
:100140000B6070471FB51FBD10B510BD00F0CDF995
:100150001146FFF7F7FF00F056F900F0EBF903B492
:10016000FFF7F2FF03BC00F0EFF9000009488047F9
:1001700009480047FEE7FEE7FEE7FEE7FEE7FEE789
:10018000FEE7FEE7FEE7FEE704480549054A064BA1
:1001900070470000AD010008ED000008600000207D
:1001A000600600206002002060020020704700000E
:1001B000002000E0401C4CF250318842FADB7047CE
:1001C00000B50246C148006820F48060BF4908605D
:1001D0000846006820F0FF000860084600681043E9
:1001E0000860C814091D0860FFF7E2FF4FF40060C3
:1001F000B6490831086000BD00B50246B348006842
:1002000040F48060B14908600846006820F0FF00B3
:1002100008600846006810430860C814091D08609B
:10022000FFF7C6FF4FF40060A8490831086000BD21
:1002300000B5034603E013F8010BFFF7DDFF187864
:100240000028F8D100BD00B5A148806940F0040045
:100250009F4988614FF033309C490C390860081D74
:10026000006820F47F40091D08600846006840F4DB
:100270004C500860FFF79CFF3820FFF7A1FF0C20CF
:10028000FFF79EFF0120FFF79BFF00BD90488069AC
:1002900040F008008E4988618E48006820F07F4059
:1002A0008C4908600846006840F04C500860802087
:1002B00088491031086040200860704700B58020F0
:1002C00084491031086040200860FFF771FF8020EA
:1002D000804914310860FFF76BFF40207D491431DD
:1002E000086000BD00B580207A49143108604020C4
:1002F000091F0860FFF75CFF802076491031086015
:1003000000BD00B50246002318E012F0800F04D0B3
:10031000802070491031086003E080206D4914315D
:10032000086040206B4910310860FFF741FF402012
:100330006849143108605006020E5B1C082BE4DB90
:10034000802064491031086040200860FFF730FFCA
:10035000402060491431086000BD00B500228020B3
:100360005C4910310860002314E0402059491031E5
:100370000860FFF71DFF5006020E5648083000685F
:1003800010F0800F01D042F0010240205149143199
:1003900008605B1C082BE8DB104600BD014601F03D
:1003A0000F000A1102EB820200EB4200C0B270475C
:1003B00030B50446FFF782FFD020FFF7A2FF2046AA
:1003C000FFF79FFFFFF77AFFD120FFF79AFFFFF7B4
:1003D000C4FF0546FFF786FF284630BD00B5FFF78E
:1003E0006DFFD020FFF78DFF0020FFF78AFF002070
:1003F000FFF787FF4520FFF784FF1220FFF781FFFB
:10040000FFF770FF00BDFFF7D1FEFFF71CFFFFF7FE
:100410003DFFFFF7E3FF30A0FFF70AFF55E00220A2
:10042000FFF7C6FF0746FFF7B9FF04460120FFF7B5
:10043000BFFF0746FFF7B2FF05460020FFF7B8FFF2
:100440000746FFF7ABFF0646C020FFF7B9FE0A20BC
:1004500094FBF0F03030C3B21846FFF7CDFE0A200F
:1004600094FBF0F100FB11403030C3B21846FFF7A7
:10047000C3FE3A20FFF7C0FE0A2095FBF0F03030B3
:10048000C3B21846FFF7B8FE0A2095FBF0F100FB57
:1004900011503030C3B21846FFF7AEFE3A20FFF7D6
:1004A000ABFE0A2096FBF0F03030C3B21846FFF7DF
:1004B000A3FE0A2096FBF0F100FB11603030C3B2BE
:1004C0001846FFF799FEFFF773FEA8E70C080140F6
:1004D00000100240000C01404453313330372052A9
:1004E00054430000704770477047754600F028F885
:1004F000AE4605006946534620F00700854618B011
:1005000020B5FFF741FEBDE820404FF000064FF058
:1005100000074FF000084FF0000B21F00701AC4638
:10052000ACE8C009ACE8C009ACE8C009ACE8C00957
:100530008D4670470446AFF300802046FFF70FFE5C
:10054000004870470000002001491820ABBEFEE7BC
:100550002600020070470000680500080000002027
:080560006006000028010008FC
:040000050800016D81
:00000001FF
